{
  "contractName": "Sample",
  "abi": [
    {
      "constant": true,
      "inputs": [],
      "name": "getValue",
      "outputs": [
        {
          "internalType": "uint256",
          "name": "",
          "type": "uint256"
        }
      ],
      "payable": false,
      "stateMutability": "view",
      "type": "function"
    },
    {
      "constant": false,
      "inputs": [
        {
          "internalType": "uint256",
          "name": "_value",
          "type": "uint256"
        }
      ],
      "name": "setValue",
      "outputs": [],
      "payable": false,
      "stateMutability": "nonpayable",
      "type": "function"
    }
  ],
  "bytecode": "0x6080604052600160005534801561001557600080fd5b5060c6806100246000396000f3fe6080604052348015600f57600080fd5b506004361060325760003560e01c80632096525514603757806355241077146053575b600080fd5b603d607e565b6040518082815260200191505060405180910390f35b607c60048036036020811015606757600080fd5b81019080803590602001909291905050506087565b005b60008054905090565b806000819055505056fea265627a7a72315820a7159e932e8f7daef72f2ef88880b068560b51be6fd51c149781b8a4950bfe1464736f6c63430005100032",
  "source": "// pragma solidity ^0.4.4;\npragma solidity >0.4.99 <0.6.0;\n\ncontract Sample {\n    uint256 value = 1;\n\n    function getValue() public view returns (uint256) {\n        return value;\n    }\n\n    function setValue(uint256 _value) public {\n        value = _value;\n    }\n\n}\n",
  "sourcePath": "/Users/ryota/codes/truffle-react-redux-typescript-sample/contracts/Sample.sol",
  "compiler": {
    "name": "solc",
    "version": "0.5.16+commit.9c3226ce.Emscripten.clang"
  },
  "schemaVersion": "3.0.23",
  "updatedAt": "2020-02-17T13:03:31.357Z",
  "networkType": "ethereum",
  "devdoc": {
    "methods": {}
  },
  "userdoc": {
    "methods": {}
  }
}